{
  "_format": "hh-sol-artifact-1",
  "contractName": "BlockIPFactory",
  "sourceName": "contracts/BlockIPFactory.sol",
  "abi": [
    {
      "inputs": [
        {
          "internalType": "address",
          "name": "_deployedContract",
          "type": "address"
        }
      ],
      "stateMutability": "nonpayable",
      "type": "constructor"
    },
    {
      "anonymous": false,
      "inputs": [
        {
          "indexed": true,
          "internalType": "address",
          "name": "previousOwner",
          "type": "address"
        },
        {
          "indexed": true,
          "internalType": "address",
          "name": "newOwner",
          "type": "address"
        }
      ],
      "name": "OwnershipTransferred",
      "type": "event"
    },
    {
      "inputs": [],
      "name": "blockIPNFT",
      "outputs": [
        {
          "internalType": "contract BlockIPNFT",
          "name": "",
          "type": "address"
        }
      ],
      "stateMutability": "view",
      "type": "function"
    },
    {
      "inputs": [
        {
          "internalType": "string",
          "name": "",
          "type": "string"
        }
      ],
      "name": "cidToOwner",
      "outputs": [
        {
          "internalType": "address",
          "name": "",
          "type": "address"
        }
      ],
      "stateMutability": "view",
      "type": "function"
    },
    {
      "inputs": [
        {
          "internalType": "address",
          "name": "_to",
          "type": "address"
        },
        {
          "internalType": "string",
          "name": "_web3Cid",
          "type": "string"
        }
      ],
      "name": "mintBlockIP",
      "outputs": [],
      "stateMutability": "nonpayable",
      "type": "function"
    },
    {
      "inputs": [],
      "name": "owner",
      "outputs": [
        {
          "internalType": "address",
          "name": "",
          "type": "address"
        }
      ],
      "stateMutability": "view",
      "type": "function"
    },
    {
      "inputs": [],
      "name": "renounceOwnership",
      "outputs": [],
      "stateMutability": "nonpayable",
      "type": "function"
    },
    {
      "inputs": [
        {
          "internalType": "address",
          "name": "newOwner",
          "type": "address"
        }
      ],
      "name": "transferOwnership",
      "outputs": [],
      "stateMutability": "nonpayable",
      "type": "function"
    }
  ],
  "bytecode": "0x608060405234801561001057600080fd5b50604051610bea380380610bea833981810160405281019061003291906101c4565b61004e61004361009560201b60201c565b61009d60201b60201c565b80600160006101000a81548173ffffffffffffffffffffffffffffffffffffffff021916908373ffffffffffffffffffffffffffffffffffffffff160217905550506101f1565b600033905090565b60008060009054906101000a900473ffffffffffffffffffffffffffffffffffffffff169050816000806101000a81548173ffffffffffffffffffffffffffffffffffffffff021916908373ffffffffffffffffffffffffffffffffffffffff1602179055508173ffffffffffffffffffffffffffffffffffffffff168173ffffffffffffffffffffffffffffffffffffffff167f8be0079c531659141344cd1fd0a4f28419497f9722a3daafe3b4186f6b6457e060405160405180910390a35050565b600080fd5b600073ffffffffffffffffffffffffffffffffffffffff82169050919050565b600061019182610166565b9050919050565b6101a181610186565b81146101ac57600080fd5b50565b6000815190506101be81610198565b92915050565b6000602082840312156101da576101d9610161565b5b60006101e8848285016101af565b91505092915050565b6109ea806102006000396000f3fe608060405234801561001057600080fd5b50600436106100625760003560e01c806347c0aa0014610067578063548cad0f146100975780636d83e0c5146100b5578063715018a6146100d15780638da5cb5b146100db578063f2fde38b146100f9575b600080fd5b610081600480360381019061007c91906105e0565b610115565b60405161008e919061066a565b60405180910390f35b61009f61015e565b6040516100ac91906106e4565b60405180910390f35b6100cf60048036038101906100ca919061072b565b610184565b005b6100d961027c565b005b6100e3610290565b6040516100f0919061066a565b60405180910390f35b610113600480360381019061010e9190610787565b6102b9565b005b6002818051602081018201805184825260208301602085012081835280955050505050506000915054906101000a900473ffffffffffffffffffffffffffffffffffffffff1681565b600160009054906101000a900473ffffffffffffffffffffffffffffffffffffffff1681565b61018c61033c565b600160009054906101000a900473ffffffffffffffffffffffffffffffffffffffff1673ffffffffffffffffffffffffffffffffffffffff1663d0def52183836040518363ffffffff1660e01b81526004016101e9929190610833565b600060405180830381600087803b15801561020357600080fd5b505af1158015610217573d6000803e3d6000fd5b505050508160028260405161022c919061089f565b908152602001604051809103902060006101000a81548173ffffffffffffffffffffffffffffffffffffffff021916908373ffffffffffffffffffffffffffffffffffffffff1602179055505050565b61028461033c565b61028e60006103ba565b565b60008060009054906101000a900473ffffffffffffffffffffffffffffffffffffffff16905090565b6102c161033c565b600073ffffffffffffffffffffffffffffffffffffffff168173ffffffffffffffffffffffffffffffffffffffff1603610330576040517f08c379a000000000000000000000000000000000000000000000000000000000815260040161032790610928565b60405180910390fd5b610339816103ba565b50565b61034461047e565b73ffffffffffffffffffffffffffffffffffffffff16610362610290565b73ffffffffffffffffffffffffffffffffffffffff16146103b8576040517f08c379a00000000000000000000000000000000000000000000000000000000081526004016103af90610994565b60405180910390fd5b565b60008060009054906101000a900473ffffffffffffffffffffffffffffffffffffffff169050816000806101000a81548173ffffffffffffffffffffffffffffffffffffffff021916908373ffffffffffffffffffffffffffffffffffffffff1602179055508173ffffffffffffffffffffffffffffffffffffffff168173ffffffffffffffffffffffffffffffffffffffff167f8be0079c531659141344cd1fd0a4f28419497f9722a3daafe3b4186f6b6457e060405160405180910390a35050565b600033905090565b6000604051905090565b600080fd5b600080fd5b600080fd5b600080fd5b6000601f19601f8301169050919050565b7f4e487b7100000000000000000000000000000000000000000000000000000000600052604160045260246000fd5b6104ed826104a4565b810181811067ffffffffffffffff8211171561050c5761050b6104b5565b5b80604052505050565b600061051f610486565b905061052b82826104e4565b919050565b600067ffffffffffffffff82111561054b5761054a6104b5565b5b610554826104a4565b9050602081019050919050565b82818337600083830152505050565b600061058361057e84610530565b610515565b90508281526020810184848401111561059f5761059e61049f565b5b6105aa848285610561565b509392505050565b600082601f8301126105c7576105c661049a565b5b81356105d7848260208601610570565b91505092915050565b6000602082840312156105f6576105f5610490565b5b600082013567ffffffffffffffff81111561061457610613610495565b5b610620848285016105b2565b91505092915050565b600073ffffffffffffffffffffffffffffffffffffffff82169050919050565b600061065482610629565b9050919050565b61066481610649565b82525050565b600060208201905061067f600083018461065b565b92915050565b6000819050919050565b60006106aa6106a56106a084610629565b610685565b610629565b9050919050565b60006106bc8261068f565b9050919050565b60006106ce826106b1565b9050919050565b6106de816106c3565b82525050565b60006020820190506106f960008301846106d5565b92915050565b61070881610649565b811461071357600080fd5b50565b600081359050610725816106ff565b92915050565b6000806040838503121561074257610741610490565b5b600061075085828601610716565b925050602083013567ffffffffffffffff81111561077157610770610495565b5b61077d858286016105b2565b9150509250929050565b60006020828403121561079d5761079c610490565b5b60006107ab84828501610716565b91505092915050565b600081519050919050565b600082825260208201905092915050565b60005b838110156107ee5780820151818401526020810190506107d3565b60008484015250505050565b6000610805826107b4565b61080f81856107bf565b935061081f8185602086016107d0565b610828816104a4565b840191505092915050565b6000604082019050610848600083018561065b565b818103602083015261085a81846107fa565b90509392505050565b600081905092915050565b6000610879826107b4565b6108838185610863565b93506108938185602086016107d0565b80840191505092915050565b60006108ab828461086e565b915081905092915050565b7f4f776e61626c653a206e6577206f776e657220697320746865207a65726f206160008201527f6464726573730000000000000000000000000000000000000000000000000000602082015250565b60006109126026836107bf565b915061091d826108b6565b604082019050919050565b6000602082019050818103600083015261094181610905565b9050919050565b7f4f776e61626c653a2063616c6c6572206973206e6f7420746865206f776e6572600082015250565b600061097e6020836107bf565b915061098982610948565b602082019050919050565b600060208201905081810360008301526109ad81610971565b905091905056fea26469706673582212209f4bb2ec082d0b6419dc67c4feb5512429419188da2af7c4941c82816b0f160364736f6c63430008130033",
  "linkReferences": {},
  "deployedLinkReferences": {}
}