{
  "_format": "hh-sol-artifact-1",
  "contractName": "BlockIPFactory",
  "sourceName": "contracts/BlockIPFactory.sol",
  "abi": [
    {
      "inputs": [
        {
          "internalType": "address",
          "name": "_deployedContract",
          "type": "address"
        }
      ],
      "stateMutability": "nonpayable",
      "type": "constructor"
    },
    {
      "inputs": [],
      "name": "blockIPNFT",
      "outputs": [
        {
          "internalType": "contract BlockIPNFT",
          "name": "",
          "type": "address"
        }
      ],
      "stateMutability": "view",
      "type": "function"
    },
    {
      "inputs": [
        {
          "internalType": "string",
          "name": "",
          "type": "string"
        }
      ],
      "name": "cidToOwner",
      "outputs": [
        {
          "internalType": "address",
          "name": "",
          "type": "address"
        }
      ],
      "stateMutability": "view",
      "type": "function"
    },
    {
      "inputs": [
        {
          "internalType": "address",
          "name": "_to",
          "type": "address"
        },
        {
          "internalType": "string",
          "name": "_web3Cid",
          "type": "string"
        }
      ],
      "name": "mintBlockIP",
      "outputs": [],
      "stateMutability": "nonpayable",
      "type": "function"
    }
  ],
  "bytecode": "0x608060405234801561001057600080fd5b506040516107d03803806107d0833981810160405281019061003291906100db565b806000806101000a81548173ffffffffffffffffffffffffffffffffffffffff021916908373ffffffffffffffffffffffffffffffffffffffff16021790555050610108565b600080fd5b600073ffffffffffffffffffffffffffffffffffffffff82169050919050565b60006100a88261007d565b9050919050565b6100b88161009d565b81146100c357600080fd5b50565b6000815190506100d5816100af565b92915050565b6000602082840312156100f1576100f0610078565b5b60006100ff848285016100c6565b91505092915050565b6106b9806101176000396000f3fe608060405234801561001057600080fd5b50600436106100415760003560e01c806347c0aa0014610046578063548cad0f146100765780636d83e0c514610094575b600080fd5b610060600480360381019061005b9190610377565b6100b0565b60405161006d9190610401565b60405180910390f35b61007e6100f9565b60405161008b919061047b565b60405180910390f35b6100ae60048036038101906100a991906104c2565b61011d565b005b6001818051602081018201805184825260208301602085012081835280955050505050506000915054906101000a900473ffffffffffffffffffffffffffffffffffffffff1681565b60008054906101000a900473ffffffffffffffffffffffffffffffffffffffff1681565b60008054906101000a900473ffffffffffffffffffffffffffffffffffffffff1673ffffffffffffffffffffffffffffffffffffffff1663d0def52183836040518363ffffffff1660e01b815260040161017892919061059d565b6020604051808303816000875af1158015610197573d6000803e3d6000fd5b505050506040513d601f19601f820116820180604052508101906101bb9190610603565b50816001826040516101cd919061066c565b908152602001604051809103902060006101000a81548173ffffffffffffffffffffffffffffffffffffffff021916908373ffffffffffffffffffffffffffffffffffffffff1602179055505050565b6000604051905090565b600080fd5b600080fd5b600080fd5b600080fd5b6000601f19601f8301169050919050565b7f4e487b7100000000000000000000000000000000000000000000000000000000600052604160045260246000fd5b6102848261023b565b810181811067ffffffffffffffff821117156102a3576102a261024c565b5b80604052505050565b60006102b661021d565b90506102c2828261027b565b919050565b600067ffffffffffffffff8211156102e2576102e161024c565b5b6102eb8261023b565b9050602081019050919050565b82818337600083830152505050565b600061031a610315846102c7565b6102ac565b90508281526020810184848401111561033657610335610236565b5b6103418482856102f8565b509392505050565b600082601f83011261035e5761035d610231565b5b813561036e848260208601610307565b91505092915050565b60006020828403121561038d5761038c610227565b5b600082013567ffffffffffffffff8111156103ab576103aa61022c565b5b6103b784828501610349565b91505092915050565b600073ffffffffffffffffffffffffffffffffffffffff82169050919050565b60006103eb826103c0565b9050919050565b6103fb816103e0565b82525050565b600060208201905061041660008301846103f2565b92915050565b6000819050919050565b600061044161043c610437846103c0565b61041c565b6103c0565b9050919050565b600061045382610426565b9050919050565b600061046582610448565b9050919050565b6104758161045a565b82525050565b6000602082019050610490600083018461046c565b92915050565b61049f816103e0565b81146104aa57600080fd5b50565b6000813590506104bc81610496565b92915050565b600080604083850312156104d9576104d8610227565b5b60006104e7858286016104ad565b925050602083013567ffffffffffffffff8111156105085761050761022c565b5b61051485828601610349565b9150509250929050565b600081519050919050565b600082825260208201905092915050565b60005b8381101561055857808201518184015260208101905061053d565b60008484015250505050565b600061056f8261051e565b6105798185610529565b935061058981856020860161053a565b6105928161023b565b840191505092915050565b60006040820190506105b260008301856103f2565b81810360208301526105c48184610564565b90509392505050565b6000819050919050565b6105e0816105cd565b81146105eb57600080fd5b50565b6000815190506105fd816105d7565b92915050565b60006020828403121561061957610618610227565b5b6000610627848285016105ee565b91505092915050565b600081905092915050565b60006106468261051e565b6106508185610630565b935061066081856020860161053a565b80840191505092915050565b6000610678828461063b565b91508190509291505056fea26469706673582212201a7bd5c9e78f1026fbb3c185c50939f72151d3544ddebe7ced6a88afdbf4993d64736f6c63430008130033",
  "linkReferences": {},
  "deployedLinkReferences": {}
}