{
  "_format": "hh-sol-artifact-1",
  "contractName": "BlockIPFactory",
  "sourceName": "contracts/BlockIPFactory.sol",
  "abi": [
    {
      "inputs": [
        {
          "internalType": "address",
          "name": "_deployedContract",
          "type": "address"
        }
      ],
      "stateMutability": "nonpayable",
      "type": "constructor"
    },
    {
      "anonymous": false,
      "inputs": [
        {
          "indexed": true,
          "internalType": "address",
          "name": "previousOwner",
          "type": "address"
        },
        {
          "indexed": true,
          "internalType": "address",
          "name": "newOwner",
          "type": "address"
        }
      ],
      "name": "OwnershipTransferred",
      "type": "event"
    },
    {
      "inputs": [],
      "name": "blockIPNFT",
      "outputs": [
        {
          "internalType": "contract BlockIPNFT",
          "name": "",
          "type": "address"
        }
      ],
      "stateMutability": "view",
      "type": "function"
    },
    {
      "inputs": [
        {
          "internalType": "string",
          "name": "",
          "type": "string"
        }
      ],
      "name": "cidToOwner",
      "outputs": [
        {
          "internalType": "address",
          "name": "",
          "type": "address"
        }
      ],
      "stateMutability": "view",
      "type": "function"
    },
    {
      "inputs": [
        {
          "internalType": "address",
          "name": "_to",
          "type": "address"
        },
        {
          "internalType": "string",
          "name": "_web3Cid",
          "type": "string"
        }
      ],
      "name": "mintBlockIP",
      "outputs": [],
      "stateMutability": "nonpayable",
      "type": "function"
    },
    {
      "inputs": [],
      "name": "owner",
      "outputs": [
        {
          "internalType": "address",
          "name": "",
          "type": "address"
        }
      ],
      "stateMutability": "view",
      "type": "function"
    },
    {
      "inputs": [],
      "name": "renounceOwnership",
      "outputs": [],
      "stateMutability": "nonpayable",
      "type": "function"
    },
    {
      "inputs": [
        {
          "internalType": "address",
          "name": "newOwner",
          "type": "address"
        }
      ],
      "name": "transferOwnership",
      "outputs": [],
      "stateMutability": "nonpayable",
      "type": "function"
    }
  ],
  "bytecode": "0x608060405234801561001057600080fd5b50604051610c5f380380610c5f833981810160405281019061003291906101c4565b61004e61004361009560201b60201c565b61009d60201b60201c565b80600160006101000a81548173ffffffffffffffffffffffffffffffffffffffff021916908373ffffffffffffffffffffffffffffffffffffffff160217905550506101f1565b600033905090565b60008060009054906101000a900473ffffffffffffffffffffffffffffffffffffffff169050816000806101000a81548173ffffffffffffffffffffffffffffffffffffffff021916908373ffffffffffffffffffffffffffffffffffffffff1602179055508173ffffffffffffffffffffffffffffffffffffffff168173ffffffffffffffffffffffffffffffffffffffff167f8be0079c531659141344cd1fd0a4f28419497f9722a3daafe3b4186f6b6457e060405160405180910390a35050565b600080fd5b600073ffffffffffffffffffffffffffffffffffffffff82169050919050565b600061019182610166565b9050919050565b6101a181610186565b81146101ac57600080fd5b50565b6000815190506101be81610198565b92915050565b6000602082840312156101da576101d9610161565b5b60006101e8848285016101af565b91505092915050565b610a5f806102006000396000f3fe608060405234801561001057600080fd5b50600436106100625760003560e01c806347c0aa0014610067578063548cad0f146100975780636d83e0c5146100b5578063715018a6146100d15780638da5cb5b146100db578063f2fde38b146100f9575b600080fd5b610081600480360381019061007c91906105f2565b610115565b60405161008e919061067c565b60405180910390f35b61009f61015e565b6040516100ac91906106f6565b60405180910390f35b6100cf60048036038101906100ca919061073d565b610184565b005b6100d961028e565b005b6100e36102a2565b6040516100f0919061067c565b60405180910390f35b610113600480360381019061010e9190610799565b6102cb565b005b6002818051602081018201805184825260208301602085012081835280955050505050506000915054906101000a900473ffffffffffffffffffffffffffffffffffffffff1681565b600160009054906101000a900473ffffffffffffffffffffffffffffffffffffffff1681565b61018c61034e565b600160009054906101000a900473ffffffffffffffffffffffffffffffffffffffff1673ffffffffffffffffffffffffffffffffffffffff1663d0def52183836040518363ffffffff1660e01b81526004016101e9929190610845565b6020604051808303816000875af1158015610208573d6000803e3d6000fd5b505050506040513d601f19601f8201168201806040525081019061022c91906108ab565b508160028260405161023e9190610914565b908152602001604051809103902060006101000a81548173ffffffffffffffffffffffffffffffffffffffff021916908373ffffffffffffffffffffffffffffffffffffffff1602179055505050565b61029661034e565b6102a060006103cc565b565b60008060009054906101000a900473ffffffffffffffffffffffffffffffffffffffff16905090565b6102d361034e565b600073ffffffffffffffffffffffffffffffffffffffff168173ffffffffffffffffffffffffffffffffffffffff1603610342576040517f08c379a00000000000000000000000000000000000000000000000000000000081526004016103399061099d565b60405180910390fd5b61034b816103cc565b50565b610356610490565b73ffffffffffffffffffffffffffffffffffffffff166103746102a2565b73ffffffffffffffffffffffffffffffffffffffff16146103ca576040517f08c379a00000000000000000000000000000000000000000000000000000000081526004016103c190610a09565b60405180910390fd5b565b60008060009054906101000a900473ffffffffffffffffffffffffffffffffffffffff169050816000806101000a81548173ffffffffffffffffffffffffffffffffffffffff021916908373ffffffffffffffffffffffffffffffffffffffff1602179055508173ffffffffffffffffffffffffffffffffffffffff168173ffffffffffffffffffffffffffffffffffffffff167f8be0079c531659141344cd1fd0a4f28419497f9722a3daafe3b4186f6b6457e060405160405180910390a35050565b600033905090565b6000604051905090565b600080fd5b600080fd5b600080fd5b600080fd5b6000601f19601f8301169050919050565b7f4e487b7100000000000000000000000000000000000000000000000000000000600052604160045260246000fd5b6104ff826104b6565b810181811067ffffffffffffffff8211171561051e5761051d6104c7565b5b80604052505050565b6000610531610498565b905061053d82826104f6565b919050565b600067ffffffffffffffff82111561055d5761055c6104c7565b5b610566826104b6565b9050602081019050919050565b82818337600083830152505050565b600061059561059084610542565b610527565b9050828152602081018484840111156105b1576105b06104b1565b5b6105bc848285610573565b509392505050565b600082601f8301126105d9576105d86104ac565b5b81356105e9848260208601610582565b91505092915050565b600060208284031215610608576106076104a2565b5b600082013567ffffffffffffffff811115610626576106256104a7565b5b610632848285016105c4565b91505092915050565b600073ffffffffffffffffffffffffffffffffffffffff82169050919050565b60006106668261063b565b9050919050565b6106768161065b565b82525050565b6000602082019050610691600083018461066d565b92915050565b6000819050919050565b60006106bc6106b76106b28461063b565b610697565b61063b565b9050919050565b60006106ce826106a1565b9050919050565b60006106e0826106c3565b9050919050565b6106f0816106d5565b82525050565b600060208201905061070b60008301846106e7565b92915050565b61071a8161065b565b811461072557600080fd5b50565b60008135905061073781610711565b92915050565b60008060408385031215610754576107536104a2565b5b600061076285828601610728565b925050602083013567ffffffffffffffff811115610783576107826104a7565b5b61078f858286016105c4565b9150509250929050565b6000602082840312156107af576107ae6104a2565b5b60006107bd84828501610728565b91505092915050565b600081519050919050565b600082825260208201905092915050565b60005b838110156108005780820151818401526020810190506107e5565b60008484015250505050565b6000610817826107c6565b61082181856107d1565b93506108318185602086016107e2565b61083a816104b6565b840191505092915050565b600060408201905061085a600083018561066d565b818103602083015261086c818461080c565b90509392505050565b6000819050919050565b61088881610875565b811461089357600080fd5b50565b6000815190506108a58161087f565b92915050565b6000602082840312156108c1576108c06104a2565b5b60006108cf84828501610896565b91505092915050565b600081905092915050565b60006108ee826107c6565b6108f881856108d8565b93506109088185602086016107e2565b80840191505092915050565b600061092082846108e3565b915081905092915050565b7f4f776e61626c653a206e6577206f776e657220697320746865207a65726f206160008201527f6464726573730000000000000000000000000000000000000000000000000000602082015250565b60006109876026836107d1565b91506109928261092b565b604082019050919050565b600060208201905081810360008301526109b68161097a565b9050919050565b7f4f776e61626c653a2063616c6c6572206973206e6f7420746865206f776e6572600082015250565b60006109f36020836107d1565b91506109fe826109bd565b602082019050919050565b60006020820190508181036000830152610a22816109e6565b905091905056fea2646970667358221220af448c4e34d5402664e79c4b795b22dae06a589a61b709c5c5c01ad1e74535ac64736f6c63430008130033",
  "linkReferences": {},
  "deployedLinkReferences": {}
}