{
  "_format": "hh-sol-artifact-1",
  "contractName": "BlockIPNFT",
  "sourceName": "contracts/BlockIPNFT.sol",
  "abi": [
    {
      "inputs": [
        {
          "internalType": "string",
          "name": "name",
          "type": "string"
        },
        {
          "internalType": "string",
          "name": "symbol",
          "type": "string"
        },
        {
          "internalType": "string",
          "name": "baseURI",
          "type": "string"
        }
      ],
      "stateMutability": "nonpayable",
      "type": "constructor"
    },
    {
      "anonymous": false,
      "inputs": [
        {
          "indexed": true,
          "internalType": "address",
          "name": "owner",
          "type": "address"
        },
        {
          "indexed": true,
          "internalType": "address",
          "name": "approved",
          "type": "address"
        },
        {
          "indexed": true,
          "internalType": "uint256",
          "name": "tokenId",
          "type": "uint256"
        }
      ],
      "name": "Approval",
      "type": "event"
    },
    {
      "anonymous": false,
      "inputs": [
        {
          "indexed": true,
          "internalType": "address",
          "name": "owner",
          "type": "address"
        },
        {
          "indexed": true,
          "internalType": "address",
          "name": "operator",
          "type": "address"
        },
        {
          "indexed": false,
          "internalType": "bool",
          "name": "approved",
          "type": "bool"
        }
      ],
      "name": "ApprovalForAll",
      "type": "event"
    },
    {
      "anonymous": false,
      "inputs": [
        {
          "indexed": false,
          "internalType": "uint256",
          "name": "_fromTokenId",
          "type": "uint256"
        },
        {
          "indexed": false,
          "internalType": "uint256",
          "name": "_toTokenId",
          "type": "uint256"
        }
      ],
      "name": "BatchMetadataUpdate",
      "type": "event"
    },
    {
      "anonymous": false,
      "inputs": [
        {
          "indexed": false,
          "internalType": "uint256",
          "name": "_tokenId",
          "type": "uint256"
        }
      ],
      "name": "MetadataUpdate",
      "type": "event"
    },
    {
      "anonymous": false,
      "inputs": [
        {
          "indexed": true,
          "internalType": "address",
          "name": "from",
          "type": "address"
        },
        {
          "indexed": true,
          "internalType": "address",
          "name": "to",
          "type": "address"
        },
        {
          "indexed": true,
          "internalType": "uint256",
          "name": "tokenId",
          "type": "uint256"
        }
      ],
      "name": "Transfer",
      "type": "event"
    },
    {
      "anonymous": false,
      "inputs": [
        {
          "indexed": true,
          "internalType": "uint256",
          "name": "newID",
          "type": "uint256"
        }
      ],
      "name": "newBlockIPNFT",
      "type": "event"
    },
    {
      "inputs": [
        {
          "internalType": "address",
          "name": "to",
          "type": "address"
        },
        {
          "internalType": "uint256",
          "name": "tokenId",
          "type": "uint256"
        }
      ],
      "name": "approve",
      "outputs": [],
      "stateMutability": "nonpayable",
      "type": "function"
    },
    {
      "inputs": [
        {
          "internalType": "address",
          "name": "owner",
          "type": "address"
        }
      ],
      "name": "balanceOf",
      "outputs": [
        {
          "internalType": "uint256",
          "name": "",
          "type": "uint256"
        }
      ],
      "stateMutability": "view",
      "type": "function"
    },
    {
      "inputs": [
        {
          "internalType": "uint256",
          "name": "tokenId",
          "type": "uint256"
        }
      ],
      "name": "getApproved",
      "outputs": [
        {
          "internalType": "address",
          "name": "",
          "type": "address"
        }
      ],
      "stateMutability": "view",
      "type": "function"
    },
    {
      "inputs": [
        {
          "internalType": "address",
          "name": "owner",
          "type": "address"
        },
        {
          "internalType": "address",
          "name": "operator",
          "type": "address"
        }
      ],
      "name": "isApprovedForAll",
      "outputs": [
        {
          "internalType": "bool",
          "name": "",
          "type": "bool"
        }
      ],
      "stateMutability": "view",
      "type": "function"
    },
    {
      "inputs": [
        {
          "internalType": "address",
          "name": "_to",
          "type": "address"
        },
        {
          "internalType": "string",
          "name": "_tokenURI",
          "type": "string"
        }
      ],
      "name": "mint",
      "outputs": [
        {
          "internalType": "uint256",
          "name": "",
          "type": "uint256"
        }
      ],
      "stateMutability": "nonpayable",
      "type": "function"
    },
    {
      "inputs": [],
      "name": "name",
      "outputs": [
        {
          "internalType": "string",
          "name": "",
          "type": "string"
        }
      ],
      "stateMutability": "view",
      "type": "function"
    },
    {
      "inputs": [
        {
          "internalType": "uint256",
          "name": "tokenId",
          "type": "uint256"
        }
      ],
      "name": "ownerOf",
      "outputs": [
        {
          "internalType": "address",
          "name": "",
          "type": "address"
        }
      ],
      "stateMutability": "view",
      "type": "function"
    },
    {
      "inputs": [
        {
          "internalType": "address",
          "name": "from",
          "type": "address"
        },
        {
          "internalType": "address",
          "name": "to",
          "type": "address"
        },
        {
          "internalType": "uint256",
          "name": "tokenId",
          "type": "uint256"
        }
      ],
      "name": "safeTransferFrom",
      "outputs": [],
      "stateMutability": "nonpayable",
      "type": "function"
    },
    {
      "inputs": [
        {
          "internalType": "address",
          "name": "from",
          "type": "address"
        },
        {
          "internalType": "address",
          "name": "to",
          "type": "address"
        },
        {
          "internalType": "uint256",
          "name": "tokenId",
          "type": "uint256"
        },
        {
          "internalType": "bytes",
          "name": "data",
          "type": "bytes"
        }
      ],
      "name": "safeTransferFrom",
      "outputs": [],
      "stateMutability": "nonpayable",
      "type": "function"
    },
    {
      "inputs": [
        {
          "internalType": "address",
          "name": "operator",
          "type": "address"
        },
        {
          "internalType": "bool",
          "name": "approved",
          "type": "bool"
        }
      ],
      "name": "setApprovalForAll",
      "outputs": [],
      "stateMutability": "nonpayable",
      "type": "function"
    },
    {
      "inputs": [
        {
          "internalType": "bytes4",
          "name": "interfaceId",
          "type": "bytes4"
        }
      ],
      "name": "supportsInterface",
      "outputs": [
        {
          "internalType": "bool",
          "name": "",
          "type": "bool"
        }
      ],
      "stateMutability": "view",
      "type": "function"
    },
    {
      "inputs": [],
      "name": "symbol",
      "outputs": [
        {
          "internalType": "string",
          "name": "",
          "type": "string"
        }
      ],
      "stateMutability": "view",
      "type": "function"
    },
    {
      "inputs": [
        {
          "internalType": "uint256",
          "name": "tokenId",
          "type": "uint256"
        }
      ],
      "name": "tokenURI",
      "outputs": [
        {
          "internalType": "string",
          "name": "",
          "type": "string"
        }
      ],
      "stateMutability": "view",
      "type": "function"
    },
    {
      "inputs": [
        {
          "internalType": "address",
          "name": "from",
          "type": "address"
        },
        {
          "internalType": "address",
          "name": "to",
          "type": "address"
        },
        {
          "internalType": "uint256",
          "name": "tokenId",
          "type": "uint256"
        }
      ],
      "name": "transferFrom",
      "outputs": [],
      "stateMutability": "nonpayable",
      "type": "function"
    }
  ],
  "bytecode": "0x60806040523480156200001157600080fd5b50604051620031a0380380620031a08339818101604052810190620000379190620001fb565b828281600090816200004a9190620004ff565b5080600190816200005c9190620004ff565b505050505050620005e6565b6000604051905090565b600080fd5b600080fd5b600080fd5b600080fd5b6000601f19601f8301169050919050565b7f4e487b7100000000000000000000000000000000000000000000000000000000600052604160045260246000fd5b620000d18262000086565b810181811067ffffffffffffffff82111715620000f357620000f262000097565b5b80604052505050565b60006200010862000068565b9050620001168282620000c6565b919050565b600067ffffffffffffffff82111562000139576200013862000097565b5b620001448262000086565b9050602081019050919050565b60005b838110156200017157808201518184015260208101905062000154565b60008484015250505050565b6000620001946200018e846200011b565b620000fc565b905082815260208101848484011115620001b357620001b262000081565b5b620001c084828562000151565b509392505050565b600082601f830112620001e057620001df6200007c565b5b8151620001f28482602086016200017d565b91505092915050565b60008060006060848603121562000217576200021662000072565b5b600084015167ffffffffffffffff81111562000238576200023762000077565b5b6200024686828701620001c8565b935050602084015167ffffffffffffffff8111156200026a576200026962000077565b5b6200027886828701620001c8565b925050604084015167ffffffffffffffff8111156200029c576200029b62000077565b5b620002aa86828701620001c8565b9150509250925092565b600081519050919050565b7f4e487b7100000000000000000000000000000000000000000000000000000000600052602260045260246000fd5b600060028204905060018216806200030757607f821691505b6020821081036200031d576200031c620002bf565b5b50919050565b60008190508160005260206000209050919050565b60006020601f8301049050919050565b600082821b905092915050565b600060088302620003877fffffffffffffffffffffffffffffffffffffffffffffffffffffffffffffffff8262000348565b62000393868362000348565b95508019841693508086168417925050509392505050565b6000819050919050565b6000819050919050565b6000620003e0620003da620003d484620003ab565b620003b5565b620003ab565b9050919050565b6000819050919050565b620003fc83620003bf565b620004146200040b82620003e7565b84845462000355565b825550505050565b600090565b6200042b6200041c565b62000438818484620003f1565b505050565b5b8181101562000460576200045460008262000421565b6001810190506200043e565b5050565b601f821115620004af57620004798162000323565b620004848462000338565b8101602085101562000494578190505b620004ac620004a38562000338565b8301826200043d565b50505b505050565b600082821c905092915050565b6000620004d460001984600802620004b4565b1980831691505092915050565b6000620004ef8383620004c1565b9150826002028217905092915050565b6200050a82620002b4565b67ffffffffffffffff81111562000526576200052562000097565b5b620005328254620002ee565b6200053f82828562000464565b600060209050601f83116001811462000577576000841562000562578287015190505b6200056e8582620004e1565b865550620005de565b601f198416620005878662000323565b60005b82811015620005b1578489015182556001820191506020850194506020810190506200058a565b86831015620005d15784890151620005cd601f891682620004c1565b8355505b6001600288020188555050505b505050505050565b612baa80620005f66000396000f3fe608060405234801561001057600080fd5b50600436106100ea5760003560e01c806370a082311161008c578063b88d4fde11610066578063b88d4fde1461025b578063c87b56dd14610277578063d0def521146102a7578063e985e9c5146102d7576100ea565b806370a08231146101f157806395d89b4114610221578063a22cb4651461023f576100ea565b8063095ea7b3116100c8578063095ea7b31461016d57806323b872dd1461018957806342842e0e146101a55780636352211e146101c1576100ea565b806301ffc9a7146100ef57806306fdde031461011f578063081812fc1461013d575b600080fd5b61010960048036038101906101049190611a99565b610307565b6040516101169190611ae1565b60405180910390f35b610127610319565b6040516101349190611b8c565b60405180910390f35b61015760048036038101906101529190611be4565b6103ab565b6040516101649190611c52565b60405180910390f35b61018760048036038101906101829190611c99565b6103f1565b005b6101a3600480360381019061019e9190611cd9565b610508565b005b6101bf60048036038101906101ba9190611cd9565b610568565b005b6101db60048036038101906101d69190611be4565b610588565b6040516101e89190611c52565b60405180910390f35b61020b60048036038101906102069190611d2c565b61060e565b6040516102189190611d68565b60405180910390f35b6102296106c5565b6040516102369190611b8c565b60405180910390f35b61025960048036038101906102549190611daf565b610757565b005b61027560048036038101906102709190611f24565b61076d565b005b610291600480360381019061028c9190611be4565b6107cf565b60405161029e9190611b8c565b60405180910390f35b6102c160048036038101906102bc9190612048565b6107e1565b6040516102ce9190611d68565b60405180910390f35b6102f160048036038101906102ec91906120a4565b610846565b6040516102fe9190611ae1565b60405180910390f35b6000610312826108da565b9050919050565b60606000805461032890612113565b80601f016020809104026020016040519081016040528092919081815260200182805461035490612113565b80156103a15780601f10610376576101008083540402835291602001916103a1565b820191906000526020600020905b81548152906001019060200180831161038457829003601f168201915b5050505050905090565b60006103b68261093b565b6004600083815260200190815260200160002060009054906101000a900473ffffffffffffffffffffffffffffffffffffffff169050919050565b60006103fc82610588565b90508073ffffffffffffffffffffffffffffffffffffffff168373ffffffffffffffffffffffffffffffffffffffff160361046c576040517f08c379a0000000000000000000000000000000000000000000000000000000008152600401610463906121b6565b60405180910390fd5b8073ffffffffffffffffffffffffffffffffffffffff1661048b610986565b73ffffffffffffffffffffffffffffffffffffffff1614806104ba57506104b9816104b4610986565b610846565b5b6104f9576040517f08c379a00000000000000000000000000000000000000000000000000000000081526004016104f090612248565b60405180910390fd5b610503838361098e565b505050565b610519610513610986565b82610a47565b610558576040517f08c379a000000000000000000000000000000000000000000000000000000000815260040161054f906122da565b60405180910390fd5b610563838383610adc565b505050565b6105838383836040518060200160405280600081525061076d565b505050565b60008061059483610dd5565b9050600073ffffffffffffffffffffffffffffffffffffffff168173ffffffffffffffffffffffffffffffffffffffff1603610605576040517f08c379a00000000000000000000000000000000000000000000000000000000081526004016105fc90612346565b60405180910390fd5b80915050919050565b60008073ffffffffffffffffffffffffffffffffffffffff168273ffffffffffffffffffffffffffffffffffffffff160361067e576040517f08c379a0000000000000000000000000000000000000000000000000000000008152600401610675906123d8565b60405180910390fd5b600360008373ffffffffffffffffffffffffffffffffffffffff1673ffffffffffffffffffffffffffffffffffffffff168152602001908152602001600020549050919050565b6060600180546106d490612113565b80601f016020809104026020016040519081016040528092919081815260200182805461070090612113565b801561074d5780601f106107225761010080835404028352916020019161074d565b820191906000526020600020905b81548152906001019060200180831161073057829003601f168201915b5050505050905090565b610769610762610986565b8383610e12565b5050565b61077e610778610986565b83610a47565b6107bd576040517f08c379a00000000000000000000000000000000000000000000000000000000081526004016107b4906122da565b60405180910390fd5b6107c984848484610f7e565b50505050565b60606107da82610fda565b9050919050565b60006107ed60076110ec565b60006107f96007611102565b90506108058482611110565b61080f818461112e565b807f16a4abb3471a22c7577cc0c8288002d3fac163a179e3a2bde1ddee983fb2966260405160405180910390a28091505092915050565b6000600560008473ffffffffffffffffffffffffffffffffffffffff1673ffffffffffffffffffffffffffffffffffffffff16815260200190815260200160002060008373ffffffffffffffffffffffffffffffffffffffff1673ffffffffffffffffffffffffffffffffffffffff16815260200190815260200160002060009054906101000a900460ff16905092915050565b6000634906490660e01b7bffffffffffffffffffffffffffffffffffffffffffffffffffffffff1916827bffffffffffffffffffffffffffffffffffffffffffffffffffffffff191614806109345750610933826111d2565b5b9050919050565b610944816112b4565b610983576040517f08c379a000000000000000000000000000000000000000000000000000000000815260040161097a90612346565b60405180910390fd5b50565b600033905090565b816004600083815260200190815260200160002060006101000a81548173ffffffffffffffffffffffffffffffffffffffff021916908373ffffffffffffffffffffffffffffffffffffffff160217905550808273ffffffffffffffffffffffffffffffffffffffff16610a0183610588565b73ffffffffffffffffffffffffffffffffffffffff167f8c5be1e5ebec7d5bd14f71427d1e84f3dd0314c0f7b2291e5b200ac8c7c3b92560405160405180910390a45050565b600080610a5383610588565b90508073ffffffffffffffffffffffffffffffffffffffff168473ffffffffffffffffffffffffffffffffffffffff161480610a955750610a948185610846565b5b80610ad357508373ffffffffffffffffffffffffffffffffffffffff16610abb846103ab565b73ffffffffffffffffffffffffffffffffffffffff16145b91505092915050565b8273ffffffffffffffffffffffffffffffffffffffff16610afc82610588565b73ffffffffffffffffffffffffffffffffffffffff1614610b52576040517f08c379a0000000000000000000000000000000000000000000000000000000008152600401610b499061246a565b60405180910390fd5b600073ffffffffffffffffffffffffffffffffffffffff168273ffffffffffffffffffffffffffffffffffffffff1603610bc1576040517f08c379a0000000000000000000000000000000000000000000000000000000008152600401610bb8906124fc565b60405180910390fd5b610bce83838360016112f5565b8273ffffffffffffffffffffffffffffffffffffffff16610bee82610588565b73ffffffffffffffffffffffffffffffffffffffff1614610c44576040517f08c379a0000000000000000000000000000000000000000000000000000000008152600401610c3b9061246a565b60405180910390fd5b6004600082815260200190815260200160002060006101000a81549073ffffffffffffffffffffffffffffffffffffffff02191690556001600360008573ffffffffffffffffffffffffffffffffffffffff1673ffffffffffffffffffffffffffffffffffffffff168152602001908152602001600020600082825403925050819055506001600360008473ffffffffffffffffffffffffffffffffffffffff1673ffffffffffffffffffffffffffffffffffffffff16815260200190815260200160002060008282540192505081905550816002600083815260200190815260200160002060006101000a81548173ffffffffffffffffffffffffffffffffffffffff021916908373ffffffffffffffffffffffffffffffffffffffff160217905550808273ffffffffffffffffffffffffffffffffffffffff168473ffffffffffffffffffffffffffffffffffffffff167fddf252ad1be2c89b69c2b068fc378daa952ba7f163c4a11628f55a4df523b3ef60405160405180910390a4610dd083838360016112fb565b505050565b60006002600083815260200190815260200160002060009054906101000a900473ffffffffffffffffffffffffffffffffffffffff169050919050565b8173ffffffffffffffffffffffffffffffffffffffff168373ffffffffffffffffffffffffffffffffffffffff1603610e80576040517f08c379a0000000000000000000000000000000000000000000000000000000008152600401610e7790612568565b60405180910390fd5b80600560008573ffffffffffffffffffffffffffffffffffffffff1673ffffffffffffffffffffffffffffffffffffffff16815260200190815260200160002060008473ffffffffffffffffffffffffffffffffffffffff1673ffffffffffffffffffffffffffffffffffffffff16815260200190815260200160002060006101000a81548160ff0219169083151502179055508173ffffffffffffffffffffffffffffffffffffffff168373ffffffffffffffffffffffffffffffffffffffff167f17307eab39ab6107e8899845ad3d59bd9653f200f220920489ca2b5937696c3183604051610f719190611ae1565b60405180910390a3505050565b610f89848484610adc565b610f9584848484611301565b610fd4576040517f08c379a0000000000000000000000000000000000000000000000000000000008152600401610fcb906125fa565b60405180910390fd5b50505050565b6060610fe58261093b565b600060066000848152602001908152602001600020805461100590612113565b80601f016020809104026020016040519081016040528092919081815260200182805461103190612113565b801561107e5780601f106110535761010080835404028352916020019161107e565b820191906000526020600020905b81548152906001019060200180831161106157829003601f168201915b50505050509050600061108f611488565b905060008151036110a45781925050506110e7565b6000825111156110d95780826040516020016110c1929190612656565b604051602081830303815290604052925050506110e7565b6110e28461149f565b925050505b919050565b6001816000016000828254019250508190555050565b600081600001549050919050565b61112a828260405180602001604052806000815250611507565b5050565b611137826112b4565b611176576040517f08c379a000000000000000000000000000000000000000000000000000000000815260040161116d906126ec565b60405180910390fd5b8060066000848152602001908152602001600020908161119691906128b8565b507ff8e1a15aba9398e019f0b49df1a4fde98ee17ae345cb5f6b5e2c27f5033e8ce7826040516111c69190611d68565b60405180910390a15050565b60007f80ac58cd000000000000000000000000000000000000000000000000000000007bffffffffffffffffffffffffffffffffffffffffffffffffffffffff1916827bffffffffffffffffffffffffffffffffffffffffffffffffffffffff1916148061129d57507f5b5e139f000000000000000000000000000000000000000000000000000000007bffffffffffffffffffffffffffffffffffffffffffffffffffffffff1916827bffffffffffffffffffffffffffffffffffffffffffffffffffffffff1916145b806112ad57506112ac82611562565b5b9050919050565b60008073ffffffffffffffffffffffffffffffffffffffff166112d683610dd5565b73ffffffffffffffffffffffffffffffffffffffff1614159050919050565b50505050565b50505050565b60006113228473ffffffffffffffffffffffffffffffffffffffff166115cc565b1561147b578373ffffffffffffffffffffffffffffffffffffffff1663150b7a0261134b610986565b8786866040518563ffffffff1660e01b815260040161136d94939291906129df565b6020604051808303816000875af19250505080156113a957506040513d601f19601f820116820180604052508101906113a69190612a40565b60015b61142b573d80600081146113d9576040519150601f19603f3d011682016040523d82523d6000602084013e6113de565b606091505b506000815103611423576040517f08c379a000000000000000000000000000000000000000000000000000000000815260040161141a906125fa565b60405180910390fd5b805181602001fd5b63150b7a0260e01b7bffffffffffffffffffffffffffffffffffffffffffffffffffffffff1916817bffffffffffffffffffffffffffffffffffffffffffffffffffffffff191614915050611480565b600190505b949350505050565b606060405180602001604052806000815250905090565b60606114aa8261093b565b60006114b4611488565b905060008151116114d457604051806020016040528060008152506114ff565b806114de846115ef565b6040516020016114ef929190612656565b6040516020818303038152906040525b915050919050565b61151183836116bd565b61151e6000848484611301565b61155d576040517f08c379a0000000000000000000000000000000000000000000000000000000008152600401611554906125fa565b60405180910390fd5b505050565b60007f01ffc9a7000000000000000000000000000000000000000000000000000000007bffffffffffffffffffffffffffffffffffffffffffffffffffffffff1916827bffffffffffffffffffffffffffffffffffffffffffffffffffffffff1916149050919050565b6000808273ffffffffffffffffffffffffffffffffffffffff163b119050919050565b6060600060016115fe846118da565b01905060008167ffffffffffffffff81111561161d5761161c611df9565b5b6040519080825280601f01601f19166020018201604052801561164f5781602001600182028036833780820191505090505b509050600082602001820190505b6001156116b2578080600190039150507f3031323334353637383961626364656600000000000000000000000000000000600a86061a8153600a85816116a6576116a5612a6d565b5b0494506000850361165d575b819350505050919050565b600073ffffffffffffffffffffffffffffffffffffffff168273ffffffffffffffffffffffffffffffffffffffff160361172c576040517f08c379a000000000000000000000000000000000000000000000000000000000815260040161172390612ae8565b60405180910390fd5b611735816112b4565b15611775576040517f08c379a000000000000000000000000000000000000000000000000000000000815260040161176c90612b54565b60405180910390fd5b6117836000838360016112f5565b61178c816112b4565b156117cc576040517f08c379a00000000000000000000000000000000000000000000000000000000081526004016117c390612b54565b60405180910390fd5b6001600360008473ffffffffffffffffffffffffffffffffffffffff1673ffffffffffffffffffffffffffffffffffffffff16815260200190815260200160002060008282540192505081905550816002600083815260200190815260200160002060006101000a81548173ffffffffffffffffffffffffffffffffffffffff021916908373ffffffffffffffffffffffffffffffffffffffff160217905550808273ffffffffffffffffffffffffffffffffffffffff16600073ffffffffffffffffffffffffffffffffffffffff167fddf252ad1be2c89b69c2b068fc378daa952ba7f163c4a11628f55a4df523b3ef60405160405180910390a46118d66000838360016112fb565b5050565b600080600090507a184f03e93ff9f4daa797ed6e38ed64bf6a1f0100000000000000008310611938577a184f03e93ff9f4daa797ed6e38ed64bf6a1f010000000000000000838161192e5761192d612a6d565b5b0492506040810190505b6d04ee2d6d415b85acef81000000008310611975576d04ee2d6d415b85acef8100000000838161196b5761196a612a6d565b5b0492506020810190505b662386f26fc1000083106119a457662386f26fc10000838161199a57611999612a6d565b5b0492506010810190505b6305f5e10083106119cd576305f5e10083816119c3576119c2612a6d565b5b0492506008810190505b61271083106119f25761271083816119e8576119e7612a6d565b5b0492506004810190505b60648310611a155760648381611a0b57611a0a612a6d565b5b0492506002810190505b600a8310611a24576001810190505b80915050919050565b6000604051905090565b600080fd5b600080fd5b60007fffffffff0000000000000000000000000000000000000000000000000000000082169050919050565b611a7681611a41565b8114611a8157600080fd5b50565b600081359050611a9381611a6d565b92915050565b600060208284031215611aaf57611aae611a37565b5b6000611abd84828501611a84565b91505092915050565b60008115159050919050565b611adb81611ac6565b82525050565b6000602082019050611af66000830184611ad2565b92915050565b600081519050919050565b600082825260208201905092915050565b60005b83811015611b36578082015181840152602081019050611b1b565b60008484015250505050565b6000601f19601f8301169050919050565b6000611b5e82611afc565b611b688185611b07565b9350611b78818560208601611b18565b611b8181611b42565b840191505092915050565b60006020820190508181036000830152611ba68184611b53565b905092915050565b6000819050919050565b611bc181611bae565b8114611bcc57600080fd5b50565b600081359050611bde81611bb8565b92915050565b600060208284031215611bfa57611bf9611a37565b5b6000611c0884828501611bcf565b91505092915050565b600073ffffffffffffffffffffffffffffffffffffffff82169050919050565b6000611c3c82611c11565b9050919050565b611c4c81611c31565b82525050565b6000602082019050611c676000830184611c43565b92915050565b611c7681611c31565b8114611c8157600080fd5b50565b600081359050611c9381611c6d565b92915050565b60008060408385031215611cb057611caf611a37565b5b6000611cbe85828601611c84565b9250506020611ccf85828601611bcf565b9150509250929050565b600080600060608486031215611cf257611cf1611a37565b5b6000611d0086828701611c84565b9350506020611d1186828701611c84565b9250506040611d2286828701611bcf565b9150509250925092565b600060208284031215611d4257611d41611a37565b5b6000611d5084828501611c84565b91505092915050565b611d6281611bae565b82525050565b6000602082019050611d7d6000830184611d59565b92915050565b611d8c81611ac6565b8114611d9757600080fd5b50565b600081359050611da981611d83565b92915050565b60008060408385031215611dc657611dc5611a37565b5b6000611dd485828601611c84565b9250506020611de585828601611d9a565b9150509250929050565b600080fd5b600080fd5b7f4e487b7100000000000000000000000000000000000000000000000000000000600052604160045260246000fd5b611e3182611b42565b810181811067ffffffffffffffff82111715611e5057611e4f611df9565b5b80604052505050565b6000611e63611a2d565b9050611e6f8282611e28565b919050565b600067ffffffffffffffff821115611e8f57611e8e611df9565b5b611e9882611b42565b9050602081019050919050565b82818337600083830152505050565b6000611ec7611ec284611e74565b611e59565b905082815260208101848484011115611ee357611ee2611df4565b5b611eee848285611ea5565b509392505050565b600082601f830112611f0b57611f0a611def565b5b8135611f1b848260208601611eb4565b91505092915050565b60008060008060808587031215611f3e57611f3d611a37565b5b6000611f4c87828801611c84565b9450506020611f5d87828801611c84565b9350506040611f6e87828801611bcf565b925050606085013567ffffffffffffffff811115611f8f57611f8e611a3c565b5b611f9b87828801611ef6565b91505092959194509250565b600067ffffffffffffffff821115611fc257611fc1611df9565b5b611fcb82611b42565b9050602081019050919050565b6000611feb611fe684611fa7565b611e59565b90508281526020810184848401111561200757612006611df4565b5b612012848285611ea5565b509392505050565b600082601f83011261202f5761202e611def565b5b813561203f848260208601611fd8565b91505092915050565b6000806040838503121561205f5761205e611a37565b5b600061206d85828601611c84565b925050602083013567ffffffffffffffff81111561208e5761208d611a3c565b5b61209a8582860161201a565b9150509250929050565b600080604083850312156120bb576120ba611a37565b5b60006120c985828601611c84565b92505060206120da85828601611c84565b9150509250929050565b7f4e487b7100000000000000000000000000000000000000000000000000000000600052602260045260246000fd5b6000600282049050600182168061212b57607f821691505b60208210810361213e5761213d6120e4565b5b50919050565b7f4552433732313a20617070726f76616c20746f2063757272656e74206f776e6560008201527f7200000000000000000000000000000000000000000000000000000000000000602082015250565b60006121a0602183611b07565b91506121ab82612144565b604082019050919050565b600060208201905081810360008301526121cf81612193565b9050919050565b7f4552433732313a20617070726f76652063616c6c6572206973206e6f7420746f60008201527f6b656e206f776e6572206f7220617070726f76656420666f7220616c6c000000602082015250565b6000612232603d83611b07565b915061223d826121d6565b604082019050919050565b6000602082019050818103600083015261226181612225565b9050919050565b7f4552433732313a2063616c6c6572206973206e6f7420746f6b656e206f776e6560008201527f72206f7220617070726f76656400000000000000000000000000000000000000602082015250565b60006122c4602d83611b07565b91506122cf82612268565b604082019050919050565b600060208201905081810360008301526122f3816122b7565b9050919050565b7f4552433732313a20696e76616c696420746f6b656e2049440000000000000000600082015250565b6000612330601883611b07565b915061233b826122fa565b602082019050919050565b6000602082019050818103600083015261235f81612323565b9050919050565b7f4552433732313a2061646472657373207a65726f206973206e6f74206120766160008201527f6c6964206f776e65720000000000000000000000000000000000000000000000602082015250565b60006123c2602983611b07565b91506123cd82612366565b604082019050919050565b600060208201905081810360008301526123f1816123b5565b9050919050565b7f4552433732313a207472616e736665722066726f6d20696e636f72726563742060008201527f6f776e6572000000000000000000000000000000000000000000000000000000602082015250565b6000612454602583611b07565b915061245f826123f8565b604082019050919050565b6000602082019050818103600083015261248381612447565b9050919050565b7f4552433732313a207472616e7366657220746f20746865207a65726f2061646460008201527f7265737300000000000000000000000000000000000000000000000000000000602082015250565b60006124e6602483611b07565b91506124f18261248a565b604082019050919050565b60006020820190508181036000830152612515816124d9565b9050919050565b7f4552433732313a20617070726f766520746f2063616c6c657200000000000000600082015250565b6000612552601983611b07565b915061255d8261251c565b602082019050919050565b6000602082019050818103600083015261258181612545565b9050919050565b7f4552433732313a207472616e7366657220746f206e6f6e20455243373231526560008201527f63656976657220696d706c656d656e7465720000000000000000000000000000602082015250565b60006125e4603283611b07565b91506125ef82612588565b604082019050919050565b60006020820190508181036000830152612613816125d7565b9050919050565b600081905092915050565b600061263082611afc565b61263a818561261a565b935061264a818560208601611b18565b80840191505092915050565b60006126628285612625565b915061266e8284612625565b91508190509392505050565b7f45524337323155524953746f726167653a2055524920736574206f66206e6f6e60008201527f6578697374656e7420746f6b656e000000000000000000000000000000000000602082015250565b60006126d6602e83611b07565b91506126e18261267a565b604082019050919050565b60006020820190508181036000830152612705816126c9565b9050919050565b60008190508160005260206000209050919050565b60006020601f8301049050919050565b600082821b905092915050565b60006008830261276e7fffffffffffffffffffffffffffffffffffffffffffffffffffffffffffffffff82612731565b6127788683612731565b95508019841693508086168417925050509392505050565b6000819050919050565b60006127b56127b06127ab84611bae565b612790565b611bae565b9050919050565b6000819050919050565b6127cf8361279a565b6127e36127db826127bc565b84845461273e565b825550505050565b600090565b6127f86127eb565b6128038184846127c6565b505050565b5b818110156128275761281c6000826127f0565b600181019050612809565b5050565b601f82111561286c5761283d8161270c565b61284684612721565b81016020851015612855578190505b61286961286185612721565b830182612808565b50505b505050565b600082821c905092915050565b600061288f60001984600802612871565b1980831691505092915050565b60006128a8838361287e565b9150826002028217905092915050565b6128c182611afc565b67ffffffffffffffff8111156128da576128d9611df9565b5b6128e48254612113565b6128ef82828561282b565b600060209050601f8311600181146129225760008415612910578287015190505b61291a858261289c565b865550612982565b601f1984166129308661270c565b60005b8281101561295857848901518255600182019150602085019450602081019050612933565b868310156129755784890151612971601f89168261287e565b8355505b6001600288020188555050505b505050505050565b600081519050919050565b600082825260208201905092915050565b60006129b18261298a565b6129bb8185612995565b93506129cb818560208601611b18565b6129d481611b42565b840191505092915050565b60006080820190506129f46000830187611c43565b612a016020830186611c43565b612a0e6040830185611d59565b8181036060830152612a2081846129a6565b905095945050505050565b600081519050612a3a81611a6d565b92915050565b600060208284031215612a5657612a55611a37565b5b6000612a6484828501612a2b565b91505092915050565b7f4e487b7100000000000000000000000000000000000000000000000000000000600052601260045260246000fd5b7f4552433732313a206d696e7420746f20746865207a65726f2061646472657373600082015250565b6000612ad2602083611b07565b9150612add82612a9c565b602082019050919050565b60006020820190508181036000830152612b0181612ac5565b9050919050565b7f4552433732313a20746f6b656e20616c7265616479206d696e74656400000000600082015250565b6000612b3e601c83611b07565b9150612b4982612b08565b602082019050919050565b60006020820190508181036000830152612b6d81612b31565b905091905056fea26469706673582212203919de0b68b50572b20e67cc0e03f21fb8e9f746882567dbc917d0157748ec5564736f6c63430008130033",
  "linkReferences": {},
  "deployedLinkReferences": {}
}